{
  "contractName": "Transactions",
  "abi": [
    {
      "inputs": [
        {
          "internalType": "address",
          "name": "_creator",
          "type": "address"
        }
      ],
      "stateMutability": "nonpayable",
      "type": "constructor"
    },
    {
      "anonymous": false,
      "inputs": [
        {
          "indexed": false,
          "internalType": "bytes32",
          "name": "_txnHash",
          "type": "bytes32"
        },
        {
          "indexed": false,
          "internalType": "address",
          "name": "_from",
          "type": "address"
        },
        {
          "indexed": false,
          "internalType": "address",
          "name": "_to",
          "type": "address"
        },
        {
          "indexed": false,
          "internalType": "bytes32",
          "name": "_prev",
          "type": "bytes32"
        },
        {
          "indexed": false,
          "internalType": "uint256",
          "name": "_timestamp",
          "type": "uint256"
        },
        {
          "indexed": false,
          "internalType": "string",
          "name": "_latitude",
          "type": "string"
        },
        {
          "indexed": false,
          "internalType": "string",
          "name": "_longitude",
          "type": "string"
        }
      ],
      "name": "txnCreated",
      "type": "event"
    },
    {
      "inputs": [
        {
          "internalType": "uint256",
          "name": "",
          "type": "uint256"
        }
      ],
      "name": "transactions",
      "outputs": [
        {
          "internalType": "bytes32",
          "name": "txnHash",
          "type": "bytes32"
        },
        {
          "internalType": "address",
          "name": "fromAddr",
          "type": "address"
        },
        {
          "internalType": "address",
          "name": "toAddr",
          "type": "address"
        },
        {
          "internalType": "bytes32",
          "name": "prevTxn",
          "type": "bytes32"
        },
        {
          "internalType": "string",
          "name": "latitude",
          "type": "string"
        },
        {
          "internalType": "string",
          "name": "longitude",
          "type": "string"
        },
        {
          "internalType": "uint256",
          "name": "timestamp",
          "type": "uint256"
        }
      ],
      "stateMutability": "view",
      "type": "function"
    },
    {
      "inputs": [],
      "name": "txnCount",
      "outputs": [
        {
          "internalType": "uint256",
          "name": "",
          "type": "uint256"
        }
      ],
      "stateMutability": "view",
      "type": "function"
    },
    {
      "inputs": [
        {
          "internalType": "bytes32",
          "name": "_txnHash",
          "type": "bytes32"
        },
        {
          "internalType": "address",
          "name": "_from",
          "type": "address"
        },
        {
          "internalType": "address",
          "name": "_to",
          "type": "address"
        },
        {
          "internalType": "bytes32",
          "name": "_prev",
          "type": "bytes32"
        },
        {
          "internalType": "string",
          "name": "_latitude",
          "type": "string"
        },
        {
          "internalType": "string",
          "name": "_longitude",
          "type": "string"
        }
      ],
      "name": "createTxnEntry",
      "outputs": [],
      "stateMutability": "nonpayable",
      "type": "function"
    },
    {
      "inputs": [],
      "name": "getAllTransactions",
      "outputs": [
        {
          "components": [
            {
              "internalType": "bytes32",
              "name": "txnHash",
              "type": "bytes32"
            },
            {
              "internalType": "address",
              "name": "fromAddr",
              "type": "address"
            },
            {
              "internalType": "address",
              "name": "toAddr",
              "type": "address"
            },
            {
              "internalType": "bytes32",
              "name": "prevTxn",
              "type": "bytes32"
            },
            {
              "internalType": "string",
              "name": "latitude",
              "type": "string"
            },
            {
              "internalType": "string",
              "name": "longitude",
              "type": "string"
            },
            {
              "internalType": "uint256",
              "name": "timestamp",
              "type": "uint256"
            }
          ],
          "internalType": "struct Transactions.txns[]",
          "name": "",
          "type": "tuple[]"
        }
      ],
      "stateMutability": "view",
      "type": "function"
    }
  ],
  "bytecode": "0x6080604052600060025534801561001557600080fd5b50604051620011e8380380620011e883398181016040528101906100399190610094565b806000806101000a81548173ffffffffffffffffffffffffffffffffffffffff021916908373ffffffffffffffffffffffffffffffffffffffff16021790555050610106565b60008151905061008e816100ef565b92915050565b6000602082840312156100a657600080fd5b60006100b48482850161007f565b91505092915050565b60006100c8826100cf565b9050919050565b600073ffffffffffffffffffffffffffffffffffffffff82169050919050565b6100f8816100bd565b811461010357600080fd5b50565b6110d280620001166000396000f3fe608060405234801561001057600080fd5b506004361061004c5760003560e01c806327506f53146100515780633626a3681461006f57806378ce13651461008b5780639ace38c2146100a9575b600080fd5b6100596100df565b6040516100669190610da8565b60405180910390f35b61008960048036038101906100849190610a8e565b6103a5565b005b61009361072f565b6040516100a09190610ee4565b60405180910390f35b6100c360048036038101906100be9190610b47565b610735565b6040516100d69796959493929190610dca565b60405180910390f35b60606000600254905060608167ffffffffffffffff8111801561010157600080fd5b5060405190808252806020026020018201604052801561013b57816020015b6101286108e7565b8152602001906001900390816101205790505b50905060008090505b8281101561039c57600160008281526020019081526020016000206040518060e0016040529081600082015481526020016001820160009054906101000a900473ffffffffffffffffffffffffffffffffffffffff1673ffffffffffffffffffffffffffffffffffffffff1673ffffffffffffffffffffffffffffffffffffffff1681526020016002820160009054906101000a900473ffffffffffffffffffffffffffffffffffffffff1673ffffffffffffffffffffffffffffffffffffffff1673ffffffffffffffffffffffffffffffffffffffff16815260200160038201548152602001600482018054600181600116156101000203166002900480601f0160208091040260200160405190810160405280929190818152602001828054600181600116156101000203166002900480156102c35780601f10610298576101008083540402835291602001916102c3565b820191906000526020600020905b8154815290600101906020018083116102a657829003601f168201915b50505050508152602001600582018054600181600116156101000203166002900480601f0160208091040260200160405190810160405280929190818152602001828054600181600116156101000203166002900480156103655780601f1061033a57610100808354040283529160200191610365565b820191906000526020600020905b81548152906001019060200180831161034857829003601f168201915b5050505050815260200160068201548152505082828151811061038457fe5b60200260200101819052508080600101915050610144565b50809250505090565b600042905060006002541415610517576040518060e001604052808881526020018773ffffffffffffffffffffffffffffffffffffffff1681526020018673ffffffffffffffffffffffffffffffffffffffff168152602001858152602001848152602001838152602001828152506001600060025481526020019081526020016000206000820151816000015560208201518160010160006101000a81548173ffffffffffffffffffffffffffffffffffffffff021916908373ffffffffffffffffffffffffffffffffffffffff16021790555060408201518160020160006101000a81548173ffffffffffffffffffffffffffffffffffffffff021916908373ffffffffffffffffffffffffffffffffffffffff1602179055506060820151816003015560808201518160040190805190602001906104e7929190610956565b5060a0820151816005019080519060200190610504929190610956565b5060c082015181600601559050506106d2565b836001600060016002540381526020019081526020016000206000015414610574576040517f08c379a000000000000000000000000000000000000000000000000000000000815260040161056b90610ec4565b60405180910390fd5b6040518060e001604052808881526020018773ffffffffffffffffffffffffffffffffffffffff1681526020018673ffffffffffffffffffffffffffffffffffffffff168152602001858152602001848152602001838152602001828152506001600060025481526020019081526020016000206000820151816000015560208201518160010160006101000a81548173ffffffffffffffffffffffffffffffffffffffff021916908373ffffffffffffffffffffffffffffffffffffffff16021790555060408201518160020160006101000a81548173ffffffffffffffffffffffffffffffffffffffff021916908373ffffffffffffffffffffffffffffffffffffffff1602179055506060820151816003015560808201518160040190805190602001906106a6929190610956565b5060a08201518160050190805190602001906106c3929190610956565b5060c082015181600601559050505b60016002600082825401925050819055507f30d01d358fb0899fe4d50947b2e9301c952d9eed09b14c7ecdcbeed4434557c48787878785888860405161071e9796959493929190610e47565b60405180910390a150505050505050565b60025481565b60016020528060005260406000206000915090508060000154908060010160009054906101000a900473ffffffffffffffffffffffffffffffffffffffff16908060020160009054906101000a900473ffffffffffffffffffffffffffffffffffffffff1690806003015490806004018054600181600116156101000203166002900480601f0160208091040260200160405190810160405280929190818152602001828054600181600116156101000203166002900480156108395780601f1061080e57610100808354040283529160200191610839565b820191906000526020600020905b81548152906001019060200180831161081c57829003601f168201915b505050505090806005018054600181600116156101000203166002900480601f0160208091040260200160405190810160405280929190818152602001828054600181600116156101000203166002900480156108d75780601f106108ac576101008083540402835291602001916108d7565b820191906000526020600020905b8154815290600101906020018083116108ba57829003601f168201915b5050505050908060060154905087565b6040518060e0016040528060008019168152602001600073ffffffffffffffffffffffffffffffffffffffff168152602001600073ffffffffffffffffffffffffffffffffffffffff168152602001600080191681526020016060815260200160608152602001600081525090565b828054600181600116156101000203166002900490600052602060002090601f016020900481019282601f1061099757805160ff19168380011785556109c5565b828001600101855582156109c5579182015b828111156109c45782518255916020019190600101906109a9565b5b5090506109d291906109d6565b5090565b6109f891905b808211156109f45760008160009055506001016109dc565b5090565b90565b600081359050610a0a81611057565b92915050565b600081359050610a1f8161106e565b92915050565b600082601f830112610a3657600080fd5b8135610a49610a4482610f2c565b610eff565b91508082526020830160208301858383011115610a6557600080fd5b610a70838284611004565b50505092915050565b600081359050610a8881611085565b92915050565b60008060008060008060c08789031215610aa757600080fd5b6000610ab589828a01610a10565b9650506020610ac689828a016109fb565b9550506040610ad789828a016109fb565b9450506060610ae889828a01610a10565b935050608087013567ffffffffffffffff811115610b0557600080fd5b610b1189828a01610a25565b92505060a087013567ffffffffffffffff811115610b2e57600080fd5b610b3a89828a01610a25565b9150509295509295509295565b600060208284031215610b5957600080fd5b6000610b6784828501610a79565b91505092915050565b6000610b7c8383610ce7565b905092915050565b610b8d81610fbe565b82525050565b610b9c81610fbe565b82525050565b6000610bad82610f68565b610bb78185610f8b565b935083602082028501610bc985610f58565b8060005b85811015610c055784840389528151610be68582610b70565b9450610bf183610f7e565b925060208a01995050600181019050610bcd565b50829750879550505050505092915050565b610c2081610fd0565b82525050565b610c2f81610fd0565b82525050565b6000610c4082610f73565b610c4a8185610f9c565b9350610c5a818560208601611013565b610c6381611046565b840191505092915050565b6000610c7982610f73565b610c838185610fad565b9350610c93818560208601611013565b610c9c81611046565b840191505092915050565b6000610cb4601b83610fad565b91507f5472616e73616374696f6e206572726f72206f636375727265642100000000006000830152602082019050919050565b600060e083016000830151610cff6000860182610c17565b506020830151610d126020860182610b84565b506040830151610d256040860182610b84565b506060830151610d386060860182610c17565b5060808301518482036080860152610d508282610c35565b91505060a083015184820360a0860152610d6a8282610c35565b91505060c0830151610d7f60c0860182610d8a565b508091505092915050565b610d9381610ffa565b82525050565b610da281610ffa565b82525050565b60006020820190508181036000830152610dc28184610ba2565b905092915050565b600060e082019050610ddf600083018a610c26565b610dec6020830189610b93565b610df96040830188610b93565b610e066060830187610c26565b8181036080830152610e188186610c6e565b905081810360a0830152610e2c8185610c6e565b9050610e3b60c0830184610d99565b98975050505050505050565b600060e082019050610e5c600083018a610c26565b610e696020830189610b93565b610e766040830188610b93565b610e836060830187610c26565b610e906080830186610d99565b81810360a0830152610ea28185610c6e565b905081810360c0830152610eb68184610c6e565b905098975050505050505050565b60006020820190508181036000830152610edd81610ca7565b9050919050565b6000602082019050610ef96000830184610d99565b92915050565b6000604051905081810181811067ffffffffffffffff82111715610f2257600080fd5b8060405250919050565b600067ffffffffffffffff821115610f4357600080fd5b601f19601f8301169050602081019050919050565b6000819050602082019050919050565b600081519050919050565b600081519050919050565b6000602082019050919050565b600082825260208201905092915050565b600082825260208201905092915050565b600082825260208201905092915050565b6000610fc982610fda565b9050919050565b6000819050919050565b600073ffffffffffffffffffffffffffffffffffffffff82169050919050565b6000819050919050565b82818337600083830152505050565b60005b83811015611031578082015181840152602081019050611016565b83811115611040576000848401525b50505050565b6000601f19601f8301169050919050565b61106081610fbe565b811461106b57600080fd5b50565b61107781610fd0565b811461108257600080fd5b50565b61108e81610ffa565b811461109957600080fd5b5056fea2646970667358221220b0555216417308015d92c6f11393b50f3a26828e978fa9ae9f5586ebaa97bb3764736f6c63430006060033",
  "immutableReferences": {},
  "source": "pragma solidity ^0.6.6;\r\npragma experimental ABIEncoderV2;\r\n\r\ncontract Transactions {\r\n    \r\n    address Creator;\r\n    \r\n    struct txns {\r\n        bytes32 txnHash;\r\n        address fromAddr;\r\n        address toAddr;\r\n        bytes32 prevTxn;\r\n        string latitude;\r\n        string longitude;\r\n        uint timestamp;\r\n    }\r\n    \r\n    mapping(uint => txns) public transactions;\r\n    uint public txnCount = 0;\r\n    \r\n    constructor(address _creator) public {\r\n        Creator = _creator;\r\n    }\r\n    \r\n    event txnCreated(bytes32 _txnHash, address _from, address _to, bytes32 _prev, uint _timestamp, string _latitude, string _longitude);\r\n    \r\n    function createTxnEntry(bytes32 _txnHash, address _from, address _to, bytes32 _prev, string memory _latitude, string memory _longitude) public {\r\n        uint _timestamp = now;\r\n        if(txnCount == 0) {\r\n            transactions[txnCount] = txns(_txnHash, _from, _to, _prev, _latitude, _longitude, _timestamp);\r\n        } else {\r\n            require(transactions[txnCount - 1].txnHash == _prev, \"Transaction error occurred!\");\r\n            transactions[txnCount] = txns(_txnHash, _from, _to, _prev, _latitude, _longitude, _timestamp);\r\n        }\r\n        txnCount += 1;\r\n        emit txnCreated(_txnHash, _from, _to, _prev, _timestamp, _latitude, _longitude);\r\n    }\r\n\r\n    function getAllTransactions() public view returns(txns[] memory) {\r\n        uint len = txnCount;\r\n        txns[] memory ret = new txns[](len);\r\n        for (uint i = 0; i < len; i++) {\r\n            ret[i] = transactions[i];\r\n        }\r\n        return ret;    \r\n    }\r\n}",
  "sourcePath": "C:\\Users\\ADMIN\\Documents\\GitHub\\FC-72-Phoenix\\blockchain\\src\\contracts\\Transactions.sol",
  "compiler": {
    "name": "solc",
    "version": "0.6.6+commit.6c089d02.Emscripten.clang"
  },
  "schemaVersion": "3.4.7",
  "updatedAt": "2022-06-10T15:35:26.959Z",
  "devdoc": {
    "methods": {}
  },
  "userdoc": {
    "methods": {}
  }
}